:100000000C945E000C9486000C9486000C94860080
:100010000C9486000C9486000C9486000C94860048
:100020000C9486000C9486000C9486000C94860038
:100030000C9486000C9486000C9486000C94860028
:100040000C948D030C9486000C94FD030C94D70340
:100050000C9486000C9486000C9486000C94860008
:100060000C9486000C948600000000080002010039
:100070000003040700000000000000000000000072
:10008000250028002B0000000000240027002A0083
:10009000040404040404040402020202020203032E
:1000A0000303030301020408102040800102040836
:1000B00010200102040810202F04790611241FBE0D
:1000C000CFEFD8E0DEBFCDBF22E0A6E5B1E001C0B2
:1000D0001D92AD30B207E1F711E0A0E0B1E0E6E437
:1000E000F2E102C005900D92A635B107D9F710E0F4
:1000F000CDE5D0E004C02197FE010E941407CC3565
:10010000D107C9F70E94A3040C9416090C940000AF
:1001100090E0FC01EC55FF4F2491FC01E057FF4FAC
:100120008491882399F090E0880F991FFC01EA5789
:10013000FF4FA591B491FC01E458FF4F8591949134
:100140008FB7F894EC91E22BEC938FBF089580E485
:1001500080937C0080917A00806480937A00809103
:100160007A0086FDFCCF809178002091790090E0A4
:10017000922B089590E0FC01E859FF4F2491FC0177
:10018000EC55FF4F3491FC01E057FF4FE491EE2313
:1001900009F43CC0222339F1233091F038F42130A6
:1001A000A9F0223001F584B58F7D12C0273091F07F
:1001B0002830A1F02430B9F4809180008F7D03C0F5
:1001C000809180008F77809380000DC084B58F77F9
:1001D00084BD09C08091B0008F7703C08091B000CA
:1001E0008F7D8093B000F0E0EE0FFF1FE458FF4FCB
:1001F000A591B4919FB7F894611104C08C9130958A
:10020000382302C0EC913E2B3C939FBF08953FB72B
:10021000F8948091620190916301A0916401B09182
:10022000650126B5A89B05C02F3F19F00196A11DB9
:10023000B11D3FBFBA2FA92F982F8827820F911D7C
:10024000A11DB11DBC01CD0142E0660F771F881FC3
:10025000991F4A95D1F708958F929F92AF92BF92BE
:10026000CF92DF92EF92FF926B017C010E94070117
:100270004B015C01C114D104E104F104F1F00E94CE
:100280000701DC01CB0188199909AA09BB09883E3D
:100290009340A105B10570F321E0C21AD108E1082D
:1002A000F10888EE880E83E0981EA11CB11CC114D1
:1002B000D104E104F10419F7DDCFFF90EF90DF9056
:1002C000CF90BF90AF909F908F900895CF92DF9284
:1002D000EF92FF920F931F93CF93DF936C017A01FC
:1002E0008B01C0E0D0E0CE15DF0581F0D8016D9123
:1002F0008D01D601ED91FC910190F081E02DC601B8
:100300000995892B11F02196EECF7E01C701DF916F
:10031000CF911F910F91FF90EF90DF90CF900895B4
:10032000089580E090E00895FC01538D448D252FC1
:1003300030E0842F90E0821B930B541710F0CF967F
:10034000089501970895FC01918D828D981761F0B1
:10035000828DDF01A80FB11D5D968C91928D9F5FFC
:100360009F73928F90E008958FEF9FEF0895FC01A7
:10037000918D828D981731F0828DE80FF11D858D5A
:1003800090E008958FEF9FEF0895FC01918D228DED
:10039000892F90E0805C9F4F821B91098F73992772
:1003A000089586E691E00E94C50121E0892B09F4B9
:1003B00020E0822F0895FC01848DDF01A80FB11D7C
:1003C000A35ABF4F2C91848D90E001968F7399278B
:1003D000848FA689B7892C93A089B1898C91837069
:1003E00080648C93938D848D981306C00288F38962
:1003F000E02D80818F7D80830895EF92FF920F938F
:100400001F93CF93DF93EC0181E0888F9B8D8C8DC0
:10041000981305C0E889F989808185FD26C0F62EEC
:100420000B8D10E00F5F1F4F0F731127E02E8C8D87
:10043000E8120CC00FB607FCFACFE889F989808171
:1004400085FFF5CFCE010E94DB01F1CF8B8DFE0140
:10045000E80FF11DE35AFF4FF0829FB7F8940B8F1E
:10046000EA89FB89808180620AC09FB7F894EE898F
:10047000FF896083E889F989808183708064808343
:100480009FBF81E090E0DF91CF911F910F91FF908E
:10049000EF900895CF93DF93EC01888D8823C9F006
:1004A000EA89FB89808185FD05C0A889B9898C917D
:1004B00086FD0FC00FB607FCF5CF808185FFF2CF18
:1004C000A889B9898C9185FFEDCFCE010E94DB010F
:1004D000E7CFDF91CF91089580E090E0892B29F05C
:1004E0000E94D10181110C9400000895EF92FF92B7
:1004F0000F931F93CF93DF93EC018B017A0121308F
:10050000310511F461E001C060E088E00E94BA00AA
:10051000EA94EF2811F461E001C060E089E00E94F4
:10052000BA000130110511F461E001C060E08AE019
:100530000E94BA00219711F461E001C060E08BE0F5
:10054000DF91CF911F910F91FF90EF900C94BA0023
:100550008430910551F1A4F481309105F1F034F427
:10056000892B09F044C021E030E039C08230910588
:10057000B9F00397E1F520E030E041E050E019C028
:100580008630910501F1C4F087309105F9F083368A
:10059000910569F520E030E022C021E030E002C0A2
:1005A00020E030E041E050E01CC020E030E040E0DE
:1005B00050E061E070E017C020E030E040E050E043
:1005C00061E070E009C020E030E002C021E030E0EE
:1005D00040E050E060E070E081E090E006C040E084
:1005E00050E060E070E080E090E00E94760261E020
:1005F00070E080E090E00C942C01009769F0FC0121
:1006000001900020E9F73197AF01481B590BBC015D
:1006100086E691E00C94660180E090E00895CF9327
:10062000DF930E94FD02EC0188E191E00E94FD024F
:100630008C0F9D1FDF91CF9108958F929F92AF9263
:10064000BF920F931F93CF93DF93CDB7DEB7A197E0
:100650000FB6F894DEBF0FBECDBF19A2423008F42A
:100660004AE08E010F5D1F4F842E912CA12CB12CDE
:10067000A50194010E94F206E62FB901CA010150BA
:100680001109EA3014F4E05D01C0E95CD801EC9393
:10069000232B242B252B61F7C8010E94FD02A19674
:1006A0000FB6F894DEBF0FBECDBFDF91CF911F9183
:1006B0000F91BF90AF909F908F900895CF93DF934D
:1006C000EC018091030290910402009739F020918F
:1006D0000502309106022C173D07B8F4BE016F5F8A
:1006E0007F4F0E943B08009791F090930402809303
:1006F0000302D0930602C0930502209107023091B5
:100700000802232B11F4FC01108281E001C080E07B
:10071000DF91CF9108950E9401091F920F920FB6A9
:100720000F9211242F933F938F939F93AF93BF9377
:1007300080915E0190915F01A0916001B091610193
:1007400030915D0123E0230F2D3720F40196A11D88
:10075000B11D05C026E8230F0296A11DB11D2093EF
:100760005D0180935E0190935F01A0936001B0935F
:1007700061018091620190916301A0916401B09147
:1007800065010196A11DB11D8093620190936301E3
:10079000A0936401B0936501BF91AF919F918F9138
:1007A0003F912F910F900FBE0F901F9018951F92A1
:1007B0000F920FB60F9211242F933F934F935F9395
:1007C0006F937F938F939F93AF93BF93EF93FF9319
:1007D00086E691E00E94DB01FF91EF91BF91AF911E
:1007E0009F918F917F916F915F914F913F912F9149
:1007F0000F900FBE0F901F9018951F920F920FB67B
:100800000F9211242F938F939F93EF93FF93E09177
:100810007601F09177018081E0917C01F0917D017A
:1008200082FD12C0908180917F018F5F8F73209134
:100830008001821751F0E0917F01F0E0EA59FE4F0C
:10084000958F80937F0101C08081FF91EF919F91EF
:100850008F912F910F900FBE0F901F9018951092AF
:1008600069011092680188EE93E0A0E0B0E0809307
:100870006A0190936B01A0936C01B0936D018AE0C3
:1008800091E0909367018093660185EC90E09093EE
:1008900073018093720184EC90E0909375018093D2
:1008A000740180EC90E0909377018093760181EC65
:1008B00090E0909379018093780182EC90E090939E
:1008C0007B0180937A0186EC90E090937D01809388
:1008D0007C0110927F011092800110928101109290
:1008E00082011092040210920302109206021092EA
:1008F0000502109208021092070280E090E00E9428
:100900005E032091030230910402811113C021156E
:10091000310519F0C9010E94B20710920402109229
:10092000030210920802109207021092060210921F
:100930000502089510920802109207026AE171E020
:10094000C9010C940F09CF93DF9300D0CDB7DEB768
:10095000789484B5826084BD84B5816084BD85B59A
:10096000826085BD85B5816085BD80916E008160A6
:1009700080936E001092810080918100826080934C
:10098000810080918100816080938100809180004E
:100990008160809380008091B10084608093B10079
:1009A0008091B00081608093B00080917A00846073
:1009B00080937A0080917A00826080937A0080919F
:1009C0007A00816080937A0080917A0080688093B9
:1009D0007A001092C10088E00E94880089E00E949D
:1009E00088008AE00E9488008BE00E948800E091E5
:1009F0007601F091770182E08083E0917201F091BD
:100A000073011082E0917401F09175018FEC808385
:100A100010927E01E0917A01F0917B0186E0808363
:100A2000E0917801F0917901808180618083E0918B
:100A30007801F0917901808188608083E09178016C
:100A4000F0917901808180688083E0917801F09154
:100A5000790180818F7D808310E301E086E691E05B
:100A60000E94C501892B99F16AE070E080E090E076
:100A70000E942C0186E691E00E94C5011816190615
:100A80006CF786E691E00E94A30189831A82E090C8
:100A90000702F09008028FEFE81AF80AC7010E94D7
:100AA0005E038823D9F220910302309104028091E1
:100AB000070290910802BE016F5F7F4F820F931F64
:100AC0000E940F09F0920802E0920702C7CF8091BE
:100AD000070290910802892B09F49DC0E09103025E
:100AE000F0910402309709F46CC080818D3489F153
:100AF000833509F452C0813409F063C00E94A70015
:100B000090935C0180935B018BE191E00E94FD0278
:100B1000C0905B01D0905C010D2C000CEE08FF082A
:100B2000F7FE0DC06DE286E691E00E94FD016627AA
:100B30007727CB016C197D098E099F0940C04AE0D7
:100B4000C701B6010E941D0388E191E00E94FD02E9
:100B50003CC010838091030290910402009719F029
:100B60000E947F0603C060E070E0CB0170935A01E1
:100B700060935901615071096E3F734018F40093FE
:100B8000580123C087E291E00E940F030E94A70052
:100B900090935A018093590118C0108380910302E9
:100BA00090910402009729F00E947F06603168F45A
:100BB00003C060E070E0CB017727882799274AE0DF
:100BC000C1CF8DE391E00E940F0380E090E00E948E
:100BD0005E032091030230910402811113C021159C
:100BE000310519F0C9010E94B20710920402109257
:100BF000030210920802109207021092060210924D
:100C0000050209C010920802109207026AE171E021
:100C1000C9010E940F0980915801882309F466C018
:100C2000109258010E94A70090935701809356019B
:100C3000E0905901F0905A018E159F052CF5809196
:100C40005601909157018E159F05F4F427E0C22EAE
:100C5000D12C5701A81AB90AC6010E94A80285E042
:100C6000A816B10434F46AE070E080E090E00E94DD
:100C70002C0181E0C81AD10878F70E94A700909350
:100C8000570180935601DBCF809156019091570117
:100C9000E816F9063CF58091560190915701E81647
:100CA000F90604F5C12CD12C5C01AE18BF08C601B1
:100CB0000E94A80285E0A816B10434F46AE070E04E
:100CC00080E090E00E942C018FEFC81AD80A88E0DB
:100CD000C816D10461F70E94A70090935701809332
:100CE0005601D9CF84E591E00E940F030E946C0267
:100CF000B5CE80910302909104020C94B2071F9329
:100D0000FC0199278827BC01E89411911032E9F37E
:100D1000193010F01E30C8F31B3251F01D3249F467
:100D2000689406C00E94A606610F711D811D911D69
:100D3000119110531A30B0F33EF490958095709550
:100D400061957F4F8F4F9F4F1F910895592F482FC7
:100D5000372F262F660F771F881F991F660F771F63
:100D6000881F991F620F731F841F951F660F771FBF
:100D7000881F991F08952F923F924F925F926F9212
:100D80007F928F929F92AF92BF92CF92DF92EF921B
:100D9000FF920F931F93CF93DF93CDB7DEB7CA1B9C
:100DA000DB0B0FB6F894DEBF0FBECDBF09942A88C7
:100DB000398848885F846E847D848C849B84AA846F
:100DC000B984C884DF80EE80FD800C811B81AA81FC
:100DD000B981CE0FD11D0FB6F894DEBF0FBECDBFC7
:100DE000ED010895A1E21A2EAA1BBB1BFD010DC047
:100DF000AA1FBB1FEE1FFF1FA217B307E407F507CB
:100E000020F0A21BB30BE40BF50B661F771F881FA6
:100E1000991F1A9469F760957095809590959B013C
:100E2000AC01BD01CF010895EE0FFF1F0590F491B5
:100E3000E02D09940F931F93CF93DF938230910598
:100E400010F482E090E0E0910B02F0910C0220E0BF
:100E500030E0A0E0B0E0309719F14081518102818B
:100E6000138148175907C8F08417950769F410973C
:100E700031F012960C93129713961C9327C000938F
:100E80000B0210930C0222C02115310519F04217F4
:100E9000530718F49A01BD01EF01DF01F801DBCF20
:100EA00021153105F9F0281B390B2430310580F468
:100EB0008A819B816115710521F0FB0193838283F7
:100EC00004C090930C0280930B02FE01329644C042
:100ED000FE01E20FF31F8193919322503109398370
:100EE00028833AC02091090230910A02232B41F451
:100EF000209102013091030130930A0220930902EC
:100F000020910001309101012115310541F42DB7E7
:100F10003EB74091040150910501241B350BE0912F
:100F20000902F0910A02E217F307A0F42E1B3F0B0F
:100F30002817390778F0AC014E5F5F4F241735074B
:100F400048F04E0F5F1F50930A02409309028193AD
:100F5000919302C0E0E0F0E0CF01DF91CF911F91CB
:100F60000F910895CF93DF93009709F481C0FC019E
:100F7000329713821282A0910B02B0910C0210974B
:100F800081F420813181820F931F209109023091D9
:100F90000A022817390751F5F0930A02E093090273
:100FA00067C0ED0120E030E0CE17DF0740F44A8152
:100FB0005B819E0141155105F1F0EA01F5CFD38324
:100FC000C28340815181840F951FC817D90759F4F6
:100FD00088819981840F951F0296918380838A81ED
:100FE0009B81938382832115310529F4F0930C02B0
:100FF000E0930B023DC0E901FB83EA8349915991DB
:10100000C40FD51FEC17FD0761F480819181840F17
:10101000951F0296E90199838883828193819B833E
:101020008A83E0E0F0E012968D919C9113970097EF
:1010300019F0FD01DC01F7CF8D919C9111979D0175
:101040002E5F3F4F820F931F2091090230910A02B9
:101050002817390769F4309729F410920C0210927E
:101060000B0202C013821282B0930A02A0930902FB
:10107000DF91CF910895A0E0B0E0E1E4F8E00C94B6
:10108000BF06EC01009721F4CB010E941A07B4C0FF
:10109000FC01E60FF71F9C0122503109E217F3070C
:1010A00008F4A8C0D9010D911C91119706171707D4
:1010B000B0F00530110508F49BC0C80104978617ED
:1010C000970708F495C002501109061B170B0193EE
:1010D00011936D937C93CF010E94B20789C05B018D
:1010E000A01AB10A4C01800E911EA0910B02B09182
:1010F0000C02612C712CE12CF12C109709F446C0E4
:101100008D919C911197A815B905B1F56C0142E03C
:10111000C40ED11CCA14DB0478F14C018A189B0858
:10112000640142E0C40ED11C1296BC901297139633
:10113000AC91B5E0CB16D10440F0B282A38391828A
:101140008082D9016D937C9309C00E5F1F4F800F81
:10115000911FF90191838083EB2DFA2FE114F104A3
:1011600031F0D7011396FC93EE93129741C0F093A0
:101170000C02E0930B023CC06816790608F43C01AF
:101180007D0112960D90BC91A02DB7CF80910902E0
:1011900090910A0288169906E1F466167706C8F45B
:1011A0008091000190910101009741F48DB79EB7A5
:1011B0004091040150910501841B950BE817F90734
:1011C000C8F4F0930A02E0930902F9017183608385
:1011D0000FC0CB010E941A077C01009759F0A801AB
:1011E000BE010E940609CE010E94B207C70104C0D9
:1011F000CE0102C080E090E0CDB7DEB7EEE00C9407
:10120000DB0681E090E0F8940C941609FB01DC0108
:1012100002C001900D9241505040D8F70895FB0153
:10122000DC0101900D920020E1F7089510E0CDE57A
:10123000D0E004C0FE010E9414072196CE35D107EC
:06124000C9F7F894FFCF8E
:1012460000000D02800000000000FD01660194010F
:101256004A02C501A301B7010D0A004144432056C5
:10126600616C75653A20004D6F746F72205356207D
:101276006F7574206F662072616E676500436F6DCF
:101286006D616E64206E6F74207265636F676E6940
:061296007A6564002A00E5
:00000001FF
